{
  "contractName": "BookRater",
  "abi": [
    {
      "inputs": [],
      "payable": false,
      "stateMutability": "nonpayable",
      "type": "constructor"
    },
    {
      "constant": true,
      "inputs": [
        {
          "internalType": "uint256",
          "name": "",
          "type": "uint256"
        }
      ],
      "name": "ratedBooks",
      "outputs": [
        {
          "internalType": "uint256",
          "name": "id",
          "type": "uint256"
        },
        {
          "internalType": "string",
          "name": "content",
          "type": "string"
        },
        {
          "internalType": "uint256",
          "name": "rating",
          "type": "uint256"
        }
      ],
      "payable": false,
      "stateMutability": "view",
      "type": "function"
    },
    {
      "constant": true,
      "inputs": [],
      "name": "taskCount",
      "outputs": [
        {
          "internalType": "uint256",
          "name": "",
          "type": "uint256"
        }
      ],
      "payable": false,
      "stateMutability": "view",
      "type": "function"
    },
    {
      "constant": false,
      "inputs": [
        {
          "internalType": "string",
          "name": "_content",
          "type": "string"
        },
        {
          "internalType": "uint256",
          "name": "rating",
          "type": "uint256"
        }
      ],
      "name": "createTask",
      "outputs": [],
      "payable": false,
      "stateMutability": "nonpayable",
      "type": "function"
    },
    {
      "constant": false,
      "inputs": [
        {
          "internalType": "uint256",
          "name": "taskno",
          "type": "uint256"
        },
        {
          "internalType": "uint256",
          "name": "rating",
          "type": "uint256"
        }
      ],
      "name": "changeRating",
      "outputs": [],
      "payable": false,
      "stateMutability": "nonpayable",
      "type": "function"
    }
  ],
  "bytecode": "0x60806040526000805534801561001457600080fd5b5061004160405180606001604052806021815260200161055d6021913960086001600160e01b0361008316565b6040805180820190915260128152712a3432902b30b734b9b434b733902430b63360711b602082015261007e9060096001600160e01b0361008316565b61017d565b60008054600190810180835560408051606081018252828152602080820188815282840188905293865284815291909420845181559151805192936100d0939085019291909101906100e2565b50604082015181600201559050505050565b828054600181600116156101000203166002900490600052602060002090601f016020900481019282601f1061012357805160ff1916838001178555610150565b82800160010185558215610150579182015b82811115610150578251825591602001919060010190610135565b5061015c929150610160565b5090565b61017a91905b8082111561015c5760008155600101610166565b90565b6103d18061018c6000396000f3fe608060405234801561001057600080fd5b506004361061004c5760003560e01c806304fe2b3414610051578063271dd589146100fb57806349ebcd4c1461011e578063b6cb58a5146101c1575b600080fd5b6100f96004803603604081101561006757600080fd5b81019060208101813564010000000081111561008257600080fd5b82018360208201111561009457600080fd5b803590602001918460018302840111640100000000831117156100b657600080fd5b91908080601f01602080910402602001604051908101604052809392919081815260200183838082843760009201919091525092955050913592506101db915050565b005b6100f96004803603604081101561011157600080fd5b508035906020013561023a565b61013b6004803603602081101561013457600080fd5b503561024f565b6040518084815260200180602001838152602001828103825284818151815260200191508051906020019080838360005b8381101561018457818101518382015260200161016c565b50505050905090810190601f1680156101b15780820380516001836020036101000a031916815260200191505b5094505050505060405180910390f35b6101c96102fb565b60408051918252519081900360200190f35b600080546001908101808355604080516060810182528281526020808201888152828401889052938652848152919094208451815591518051929361022893908501929190910190610301565b50604082015181600201559050505050565b60009182526001602052604090912060020155565b600160208181526000928352604092839020805481840180548651600296821615610100026000190190911695909504601f810185900485028601850190965285855290949193929091908301828280156102eb5780601f106102c0576101008083540402835291602001916102eb565b820191906000526020600020905b8154815290600101906020018083116102ce57829003601f168201915b5050505050908060020154905083565b60005481565b828054600181600116156101000203166002900490600052602060002090601f016020900481019282601f1061034257805160ff191683800117855561036f565b8280016001018555821561036f579182015b8281111561036f578251825591602001919060010190610354565b5061037b92915061037f565b5090565b61039991905b8082111561037b5760008155600101610385565b9056fea265627a7a723158208158ddecaa00dda8f72dd70f7f249fb2389d2bb4ccb9bb6f81b6e1efbb9fa8a364736f6c6343000510003254686520536576656e2048757362616e6473206f66204576656c796e204875676f",
  "source": "pragma solidity >=0.5.16;\r\n\r\ncontract BookRater {\r\n    uint256 public taskCount = 0;\r\n\r\n    struct Rater {\r\n        uint256 id;\r\n        string content;\r\n        uint256 rating;\r\n    }\r\n\r\n    mapping(uint256 => Rater) public ratedBooks;\r\n\r\n    function createTask(string memory _content, uint rating) public {\r\n        taskCount++;\r\n        ratedBooks[taskCount] = Rater(taskCount, _content, rating);\r\n    }\r\n\r\n    constructor() public{\r\n        createTask(\"The Seven Husbands of Evelyn Hugo\",8);\r\n        createTask(\"The Vanishing Half\",9);\r\n      }\r\n    \r\n    function changeRating(uint taskno,uint rating) public {\r\n        Rater storage b1 = ratedBooks[taskno];\r\n        b1.rating = rating;\r\n    }\r\n}\r\n",
  "sourcePath": "D:\\DApp\\Dapp-demo\\eth-bookrateWS\\contracts\\BookRater.sol",
  "compiler": {
    "name": "solc",
    "version": "0.5.16+commit.9c3226ce.Emscripten.clang"
  },
  "schemaVersion": "3.4.3",
  "updatedAt": "2022-01-20T14:57:52.815Z",
  "networkType": "ethereum",
  "devdoc": {
    "methods": {}
  },
  "userdoc": {
    "methods": {}
  }
}