{
  "contractName": "BookRater",
  "abi": [
    {
      "inputs": [],
      "payable": false,
      "stateMutability": "nonpayable",
      "type": "constructor"
    },
    {
      "anonymous": false,
      "inputs": [
        {
          "indexed": false,
          "internalType": "uint256",
          "name": "task",
          "type": "uint256"
        }
      ],
      "name": "BookDeleted",
      "type": "event"
    },
    {
      "anonymous": false,
      "inputs": [
        {
          "indexed": false,
          "internalType": "string",
          "name": "bookName",
          "type": "string"
        },
        {
          "indexed": false,
          "internalType": "uint256",
          "name": "rating",
          "type": "uint256"
        }
      ],
      "name": "BooksUpdated",
      "type": "event"
    },
    {
      "constant": true,
      "inputs": [
        {
          "internalType": "uint256",
          "name": "",
          "type": "uint256"
        }
      ],
      "name": "ratedBooks",
      "outputs": [
        {
          "internalType": "uint256",
          "name": "id",
          "type": "uint256"
        },
        {
          "internalType": "string",
          "name": "content",
          "type": "string"
        },
        {
          "internalType": "uint256",
          "name": "rating",
          "type": "uint256"
        }
      ],
      "payable": false,
      "stateMutability": "view",
      "type": "function"
    },
    {
      "constant": true,
      "inputs": [],
      "name": "taskCount",
      "outputs": [
        {
          "internalType": "uint256",
          "name": "",
          "type": "uint256"
        }
      ],
      "payable": false,
      "stateMutability": "view",
      "type": "function"
    },
    {
      "constant": false,
      "inputs": [
        {
          "internalType": "string",
          "name": "_content",
          "type": "string"
        },
        {
          "internalType": "uint256",
          "name": "rating",
          "type": "uint256"
        }
      ],
      "name": "createTask",
      "outputs": [],
      "payable": false,
      "stateMutability": "nonpayable",
      "type": "function"
    },
    {
      "constant": false,
      "inputs": [
        {
          "internalType": "uint256",
          "name": "taskno",
          "type": "uint256"
        },
        {
          "internalType": "uint256",
          "name": "rating",
          "type": "uint256"
        }
      ],
      "name": "changeRating",
      "outputs": [],
      "payable": false,
      "stateMutability": "nonpayable",
      "type": "function"
    },
    {
      "constant": false,
      "inputs": [
        {
          "internalType": "uint256",
          "name": "taskno",
          "type": "uint256"
        }
      ],
      "name": "deleteRating",
      "outputs": [],
      "payable": false,
      "stateMutability": "nonpayable",
      "type": "function"
    }
  ],
  "bytecode": "0x60806040526000805534801561001457600080fd5b5061004160405180606001604052806021815260200161077a6021913960086001600160e01b0361008316565b6040805180820190915260128152712a3432902b30b734b9b434b733902430b63360711b602082015261007e9060096001600160e01b0361008316565b61017d565b60008054600190810180835560408051606081018252828152602080820188815282840188905293865284815291909420845181559151805192936100d0939085019291909101906100e2565b50604082015181600201559050505050565b828054600181600116156101000203166002900490600052602060002090601f016020900481019282601f1061012357805160ff1916838001178555610150565b82800160010185558215610150579182015b82811115610150578251825591602001919060010190610135565b5061015c929150610160565b5090565b61017a91905b8082111561015c5760008155600101610166565b90565b6105ee8061018c6000396000f3fe608060405234801561001057600080fd5b50600436106100575760003560e01c806304fe2b341461005c578063271dd5891461010657806349ebcd4c14610129578063b6cb58a5146101cc578063e7ce20b9146101e6575b600080fd5b6101046004803603604081101561007257600080fd5b81019060208101813564010000000081111561008d57600080fd5b82018360208201111561009f57600080fd5b803590602001918460018302840111640100000000831117156100c157600080fd5b91908080601f0160208091040260200160405190810160405280939291908181526020018383808284376000920191909152509295505091359250610203915050565b005b6101046004803603604081101561011c57600080fd5b5080359060200135610262565b6101466004803603602081101561013f57600080fd5b503561037e565b6040518084815260200180602001838152602001828103825284818151815260200191508051906020019080838360005b8381101561018f578181015183820152602001610177565b50505050905090810190601f1680156101bc5780820380516001836020036101000a031916815260200191505b5094505050505060405180910390f35b6101d461042a565b60408051918252519081900360200190f35b610104600480360360208110156101fc57600080fd5b5035610430565b6000805460019081018083556040805160608101825282815260208082018881528284018890529386528481529190942084518155915180519293610250939085019291909101906104de565b50604082015181600201559050505050565b6000548211156102ae576040805162461bcd60e51b8152602060048201526012602482015271496e76616c696420426f6f6b204944206e6f60701b604482015290519081900360640190fd5b60008281526001602081815260409283902060028082018690558451928301869052848352818401805494851615610100026000190190941604938201849052927f0a9dbd8ba48fa172b8eaf9beb0471203265420b7513b04bb65b56e201af77f8792918591819060608201908590801561036a5780601f1061033f5761010080835404028352916020019161036a565b820191906000526020600020905b81548152906001019060200180831161034d57829003601f168201915b5050935050505060405180910390a1505050565b600160208181526000928352604092839020805481840180548651600296821615610100026000190190911695909504601f8101859004850286018501909652858552909491939290919083018282801561041a5780601f106103ef5761010080835404028352916020019161041a565b820191906000526020600020905b8154815290600101906020018083116103fd57829003601f168201915b5050505050908060020154905083565b60005481565b60005481111561047d576040805162461bcd60e51b815260206004820152601360248201527224b73b30b634b2102137b7b59024a21037379760691b604482015290519081900360640190fd5b60008181526001602081905260408220828155919061049e9083018261055c565b506000600291909101556040805182815290517ed5ed47574df40471633fbb8b010e6a63564a4d1b16a1de678595713ab3150d9181900360200190a15b50565b828054600181600116156101000203166002900490600052602060002090601f016020900481019282601f1061051f57805160ff191683800117855561054c565b8280016001018555821561054c579182015b8281111561054c578251825591602001919060010190610531565b5061055892915061059c565b5090565b50805460018160011615610100020316600290046000825580601f1061058257506104db565b601f0160209004906000526020600020908101906104db91905b6105b691905b8082111561055857600081556001016105a2565b9056fea265627a7a72315820fd72f1b2e32e3b7bad02a3893eff15c3a61b3b370e0c23a10ced7350e5bc3c1664736f6c6343000510003254686520536576656e2048757362616e6473206f66204576656c796e204875676f",
  "source": "pragma solidity >=0.5.16;\r\n\r\n//aim is to create a CRUD Ap\r\ncontract BookRater {\r\n    uint256 public taskCount = 0;\r\n\r\n    struct Rater {\r\n        uint256 id;\r\n        string content;\r\n        uint256 rating;\r\n    }\r\n\r\n    mapping(uint256 => Rater) public ratedBooks;\r\n\r\n    event BooksUpdated(string bookName, uint256 rating);\r\n\r\n    event BookDeleted(uint256 task);\r\n\r\n    //create fn\r\n    function createTask(string memory _content, uint256 rating) public {\r\n        taskCount++;\r\n        ratedBooks[taskCount] = Rater(taskCount, _content, rating);\r\n    }\r\n\r\n    constructor() public {\r\n        createTask(\"The Seven Husbands of Evelyn Hugo\", 8);\r\n        createTask(\"The Vanishing Half\", 9);\r\n    }\r\n\r\n    //update fn\r\n    function changeRating(uint256 taskno, uint256 rating) public {\r\n        if (taskno > taskCount) {\r\n            revert((\"Invalid Book ID no\"));\r\n        } else {\r\n            Rater storage b1 = ratedBooks[taskno];\r\n            b1.rating = rating;\r\n            emit BooksUpdated(b1.content, b1.rating);\r\n        }\r\n    }\r\n\r\n    //delete fn\r\n    function deleteRating(uint256 taskno) public {\r\n        if (taskno > taskCount){\r\n            revert(\"Invalid Book ID no.\");\r\n        }else{\r\n            delete ratedBooks[taskno];\r\n            emit BookDeleted(taskno);\r\n        }\r\n    }\r\n}\r\n",
  "sourcePath": "D:\\DApp\\Dapp-demo\\eth-bookrateWS\\contracts\\BookRater.sol",
  "compiler": {
    "name": "solc",
    "version": "0.5.16+commit.9c3226ce.Emscripten.clang"
  },
  "schemaVersion": "3.4.3",
  "updatedAt": "2022-01-31T15:04:36.610Z",
  "networkType": "ethereum",
  "devdoc": {
    "methods": {}
  },
  "userdoc": {
    "methods": {}
  }
}